:020000020000FC
:10000000C2C387C318951895189518951895189513
:1000100018956CC3189518951895189518951895F6
:1000200018954465636F64657273204142432043B1
:10003000562D616464723A2024004465636F6465E0
:10004000722D24002070757420696E746F204C65C9
:1000500061726E2D4D6F64652400206C6561726E57
:10006000656420616464726573733A20240057529A
:1000700049544520240056455249465924004249D6
:10008000542024003C53657276696365204D6F648B
:10009000653E24003C4F7065726174696F6E204D3F
:1000A0006F64653E240003E009B908E90AB90895C0
:1000B0005D9BFECF0CB908955F935FB75F931CB053
:1000C0005F915FBF5F9118950F930DE0F1DF0AE03C
:1000D000EFDF0F9108950F930DE0EADF0F91089580
:1000E0000F930AE0E5DF0F9108950F9300E2E0DF40
:1000F0000F9108950F9309E0DBDF0F9108950F939F
:1001000008E0D6DF0F9108950D0A4156522072750E
:100110006E6E696E673A204443435F4465636F6463
:100120006572342E61736D0D0A24E8E0F1E00F93DF
:100130000F92C8953196002D043211F0B9DFF9CF36
:100140000F900F9108951F930F700A3010F410E371
:1001500001C017E3010FACDF1F9108950F930295C3
:10016000F2DF0F91F0DF08950F930F2FF7DF0E2FBF
:10017000F5DF0F9108950F93F03029F4E03128F066
:100180000E2FECDF04C0F0DF02C00E2FDCDF0F917A
:1001900008950F93CF93DF93EF93FF932F92222431
:1001A000C0E1D7E222D015D0C8EED3E01ED011D0E6
:1001B000C4E6D0E01AD00DD0CAE0D0E016D009D005
:1001C0000E2FC1DF2F90FF91EF91DF91CF910F9113
:1001D00008950F93222019F4C03009F404C00FEFE2
:1001E000202E0C2FB0DF0F910895AF93BF93AA2755
:1001F000BB27EC17FD0720F0EC1BFD0B1196F9CF88
:10020000CA2FDB2FBF91AF910895A05600E0B00B2D
:10021000A093700060916000709161008091620015
:1002200090916300C0916400D09165006F3F09F424
:10023000AEC110917000A0E6B0E00D918FDF1A956D
:10024000E1F70AE335DF51DF00917000043009F077
:1002500068C0262F27272827291719F00AE228DF48
:1002600095C1062F007F003709F05BC0FF93EF9325
:10027000F0E0E4E85CDFEF91FF9137DFB62FB37079
:10028000A72F1196FF93EF9303E412DF06E510DF2B
:10029000FB2FEA2F7EDF29DFEF91FF91062F0C70F5
:1002A0000C3029F0043069F00830B1F06FC1FF93D1
:1002B000EF93F0E0EEE63BDFEF91FF91082F4EDF8A
:1002C0002FC0FF93EF93F0E0E6E731DF0EDFEF9111
:1002D000FF91082F43DF24C0FF93EF93F0E0EEE798
:1002E00026DF082F007121F0F0E0EEE620DF04C0E9
:1002F000F0E0E6E71CDFF9DE082F087011F001E3FB
:1003000001C000E3D5DE0CE3D3DED2DE082F077098
:10031000E02FFF273EDFE9DEEF91FF91082F1EDF80
:100320002DC167FF33C166FD31C177FF2FC16F3B20
:1003300029F4272F2095207709F428C10091700017
:10034000063009F00AC0262F2727282729272C271F
:100350002D1719F00AE2ACDE19C1009170000330CC
:1003600009F014C1262F2727281719F00AE2A0DE6A
:100370000DC1E62FEF7374FFE06475FFE068FF279F
:1003800076FFF16006DFB1DEF7FEB3C0F0FE36C0E7
:100390009F2EAE2EDF93CF93FF0FFF0FF770E7FD79
:1003A000F260E6FDF160EF73D0E0C1E0E199FECFCD
:1003B000CEBBDFBBEDBBF894E29AE19A7894D0E033
:1003C000C0E0E199FECFCEBBDFBBFDBBF894E29A63
:1003D000E19A7894CF91DF91AF93BF93AE2FBF2F67
:1003E000F0E0EAE3A4DE01E463DEF0E0EAE59FDEAC
:1003F000FB2FEA2FCEDEBF91AF916FC0F1FE36C06A
:10040000BF2ECE2EDF93CF93FF0FFF0FF770E7FDC8
:10041000F260E6FDF160EF73D0E0C3E0E199FECF5A
:10042000CEBBDFBBEDBBF894E29AE19A7894D0E0C2
:10043000C2E0E199FECFCEBBDFBBFDBBF894E29AF0
:10044000E19A7894CF91DF91AF93BF93AE2FBF2FF6
:10045000F0E0EAE36CDE02E42BDEF0E0EAE567DEE2
:10046000FB2FEA2F96DEBF91AF9137C0F2FE35C069
:10047000DF2EEE2EDF93CF93FF0FFF0FF770E7FD18
:10048000F260E6FDF160EF73D0E0C5E0E199FECFE8
:10049000CEBBDFBBEDBBF894E29AE19A7894D0E052
:1004A000C4E0E199FECFCEBBDFBBFDBBF894E29A7E
:1004B000E19A7894CF91DF91AF93BF93AE2FBF2F86
:1004C000F0E0EAE334DE03E4F3DDF0E0EAE52FDE1A
:1004D000FB2FEA2F5EDEBF91AF9100E0F02E9398E4
:1004E000F0FC939A9498F1FC949A9598F2FC959A62
:1004F0004DC0EA15F90509F408C0EC15FB0509F42F
:1005000004C0EE15FD0509F041C0172F177021E05A
:10051000822E103019F0880C1A95E9F70F93072FE7
:1005200007700063C5DD0F91EA15F90559F40BB3A7
:1005300073FD03C08094082101C008290BBB01E4AE
:10054000B7DD1BC0EC15FB0559F408B373FD03C000
:100550008094082101C0082908BB02E4A9DD0DC070
:10056000EE15FD0551F405B373FD03C08094082119
:1005700001C0082905BB03E49BDDB7DD979A02E0C3
:10058000702E09B7016009BF002702BF9DDDA0E6FC
:10059000B0E008958E98969808958F9A9798089548
:1005A00037980FEF0ABB07BB04BB00270BBB08BB88
:1005B00005BB0895F0E0E2E2BADDDF93CF93D0E02F
:1005C000C1E0E199FECFCEBBDFBBE09AE099FECF60
:1005D000ADB3D0E0C0E0E199FECFCEBBDFBBE09A87
:1005E000E099FECFBDB3B0FDA064B1FDA068B695A3
:1005F000B695CF91DF919B2EAA2EF92DEA2DC9DD5C
:1006000074DDDF93CF93D0E0C3E0E199FECFCEBBA2
:10061000DFBBE09AE099FECFADB3D0E0C2E0E19954
:10062000FECFCEBBDFBBE09AE099FECFBDB3B0FDFD
:10063000A064B1FDA068B695B695CF91DF91BB2EB1
:10064000CA2EFB2DEC2DA5DD50DDDF93CF93D0E03E
:10065000C5E0E199FECFCEBBDFBBE09AE099FECFCB
:10066000ADB3D0E0C4E0E199FECFCEBBDFBBE09AF2
:10067000E099FECFBDB3B0FDA064B1FDA068B69512
:10068000B695CF91DF91DB2EEA2EFD2DEE2D81DD8B
:100690001BDD00E0F02E9398F0FC939A9498F1FC07
:1006A000949A9598F2FC959A08958A98929805B72D
:1006B000026005BF0BB700640BBF08958B9A8C9A3C
:1006C0008D9A9398949895980895002709BF0FBD27
:1006D00002E00EBD002709BF00270DBD0CBD089527
:1006E00003E003BF09B7006009BF08950F930FB778
:1006F0000F93072D003029F00A95702E003009F075
:1007000004C0979809B70E7F09BF0F910FBF0F91D3
:1007100018950F930FB70F93F7FC0CC001E8F02E5C
:100720009398F0FC939A9498F1FC949A9598F2FC23
:10073000959A25C00F2D000F08F503FD0160077085
:100740000068F02E9398F0FC939A9498F1FC949A98
:100750009598F2FC959AF0E0EAE3E9DCF0FC05C03C
:10076000F1FC05C0F2FC05C009C001E403C002E4CD
:1007700001C003E49DDCF0E0E4E4D9DCA5DC0F91EA
:100780000FBF0F911895F89412E00FE51EBF0DBF33
:100790008ADC06DF8ADF92DFFDDE97DFFEDEA0DF88
:1007A000C4DC08DFA0E6B0E0332740E07894869907
:1007B000FECFECB5FDB500270DBD0CBD869BFECF71
:1007C000ECB5FDB500270DBD0CBDEF3200E0F00724
:1007D00060F0EB3300E0F007E8F0E23500E0F0070E
:1007E00020F0E13004E2F00708F023C0403029F4A3
:1007F0003C3070F044E051E00BC0433019F444E069
:1008000051E006C0443021F4550F10F443E05D93ED
:1008100033270FC03395443041F4550F10F0516029
:1008200008C043E051605D9304C0433011F440E0E0
:04083000ECDCBDCF70
:00000001FF
