:020000020000FC
:1000000010C046C01895189518951895189518950C
:10001000189552C01895D4C01895189500C1189518
:100020001895F89402E01FE50EBF1DBF0FE304BB57
:1000300001E005BB8D9A8C9A8F9A60E040E050E019
:100040003DE288270BB700640BBF05B7026005BF10
:100050009ED0ADD001E009BF00270BBD4ABD09BD50
:1000600058BD63BD0DBD0CBD04BD02BF01EA0FBD8F
:1000700004E00EBD06E605BD03E003BFCAD07894D8
:10008000369A1FD080FFFDCFBFD00BD08827F9CF85
:100090008FB60F9305B3087F016005BB0F918FBE2C
:1000A000189505B3102F087F1770110F18FD1160F8
:1000B0001770010F05BB08953A9511F43DE28FEFDB
:1000C000189500917400033008F460C0909174009A
:1000D0009030089491F0E0917200F09173002191BA
:1000E000E03708F0E0E6E0937200909174009A9592
:1000F0000AF490E09093740088949091740090308A
:10010000089491F0E0917200F09173001190E03743
:1001100008F0E0E6E0937200909174009A950AF47A
:1001200090E09093740088949091740090300894BB
:1001300091F0E0917200F09173007191E03708F056
:10014000E0E6E0937200909174009A950AF490E0D2
:100150009093740088942A3141F400270BBD1ABC97
:1001600070FDAD9A70FFAD9811C02B3141F400279E
:1001700009BD18BC70FDAC9A70FFAC9807C0223066
:1001800029F413BC70FDAB9A70FFAB98089590E012
:100190009093740080E690E08093700090937100DB
:1001A00080E690E08093720090937300089507E1D9
:1001B00009B908E90AB908955D9BFECF0CB9089505
:1001C0008FB60F930CB11BB114FF01C01AC01AB146
:1001D00013FF01C016C090917400903110F0089484
:1001E00080F0E0917000F09171000193E03708F029
:1001F000E0E6E09370009091740093959093740002
:1002000088940F918FBE1895092DD6DF0A2DD4DF63
:100210000895D0980FEA06B900E007B9089594B0A0
:04022000A5B01895D8
:00000001FF
