:020000020000FC
:10000000EAC11895189518951895ACC118951895CA
:100010001895189518951895189518951895189578
:1000200018959F93FF93EF93BF93AF9390917400B4
:10003000903110F00894D0F0A0E6B0E05096E09136
:100040007000F09171000193FB1730F009F010F48B
:10005000EA1710F0E0E6F0E0E0937000F093710032
:10006000909174009395909374008894AF91BF9190
:10007000EF91FF919F9108959F93FF93EF93BF930B
:10008000AF939091740090300894E1F0A0E6B0E056
:100090005096E0917200F09173000191FB1730F0DF
:1000A00009F010F4EA1710F0E0E6F0E0E0937200D7
:1000B000F0937300909174009A950AF490E09093F5
:1000C00074008894AF91BF91EF91FF919F91089533
:1000D0009F93EF93FF93909174009030089431F0C8
:1000E000E0917200F091730000818894FF91EF918C
:1000F0009F9108959F9390E0909374009F918F93A8
:100100009F9380E690E080937000909371009F91A0
:100110008F918F939F9380E690E0809372009093ED
:1001200073009F918F91089507E109B908E90AB911
:1001300008955D9BFECF000000000CB908955F9309
:100140005FB75F930F930CB16CDF0F915F915FBF4F
:100150005F9118950F930DE0ECDF0AE0EADF0F9155
:1001600008950F9300E2E5DF0F9108950D0A4156BF
:10017000522072756E6E696E673A204443435F4445
:1001800065636F6465722E61736D0D0A2400ECE681
:10019000F1E00F930F92C8953196002D0F90043225
:1001A00011F0C7DFF7CF0F9108959F9392EF9A95C3
:1001B000F1F79F9100000895AF93A9E0F6DFAA95AB
:1001C000E9F7A7EEAA95F1F7AF9100000895F4DFE3
:1001D000F3DFF2DFF1DFF0DF0895F9DFF8DFF7DFBB
:1001E000F6DFF5DF0895F9DFF8DFF7DFF6DF0895D2
:1001F000BF93BAE0F8DFBA95E9F7BF91089500E33D
:100200000EF401E396DF0895002709BF00E001BB6B
:1002100000270FBD01E00EBD05D000E209BF222777
:100220001127089500270DBD0CBD089516F0889480
:1002300001C00894089516F4889401C008940895A4
:100240000EB5007429F00F7B0EBDECDF989403C04F
:1002500000640EBD189408950F931F93E6B5F7B58B
:1002600008ED11E0E017F10740F400E811E0E017B5
:10027000F10780F0689488940EC008E912E0E01756
:10028000F10740F00FEF1FEFE017F10718F4E894C3
:10029000889401C008941F910F91089516F01127BA
:1002A00004C013951A3008F02395089518940EF49D
:1002B00098940895213031F4989426F0239531E0F4
:1002C00044271894B3DF0895223039F4AFDF441F78
:1002D000330F303011F4239518940895233031F4FE
:1002E000989426F0239551E0662718949FDF08958F
:1002F000243039F49BDF661F550F503011F42395DD
:1003000018940895253031F4989426F0239571E0DF
:10031000882718948BDF0895263039F487DF881FEB
:10032000770F703011F4239518940895273029F42D
:1003300098941EF42227112718947DDF08954030E9
:1003400021F4603011F4803001F408954F3F21F41E
:10035000603011F48F3F01F40895403011F46817B4
:1003600001F408950F930FB70F93EF93FF9368DF96
:1003700061F572DF40F143DF91DF9CDF31F118F16D
:10038000A3DF19F1ABDF09F1F0F0B2DFF1F0BADF72
:10039000E1F0C8F0C1DFC9F0C9DF11F0A0F015C06D
:1003A000E0DECDDF91F0D2DF81F0D7DF71F0042FF6
:1003B000C0DE00E2BEDE062FBCDE00E2BADE082FA1
:1003C000B8DEC8DE02C022271127FF91EF910F91FE
:1003D0000FBF0F911895F89402E01FE50EBF1DBFE7
:0E03E00089DEA2DE11DF789403DFD1DEFFCFCD
:00000001FF
