:020000020000FC
:1000000010C018951895189518952BC032C032C09D
:1000100018951895189548C018951895189518951D
:10002000189502E01FE50EBF1DBFF894002709BF19
:100030000027076004BB07E005BB00E001BB1BD045
:100040002AD000E209BF00270DBD0CBD00270FBD5F
:1000500002E40EBD78944CD0022F22D0032F20D082
:10006000FACF0F9326B537B500270DBD0CBD0F9104
:1000700018951895189590E09093740080E690E09C
:10008000809370009093710080E690E080937200FE
:1000900090937300089507E109B908E90AB9089532
:1000A0005D9BFECF0CB908958FB60F930CB11BB1B9
:1000B00014FF01C01AC01AB113FF01C016C09091FD
:1000C0007400903110F0089480F0E0917000F0918D
:1000D00071000193E03708F0E0E6E0937000909142
:1000E000740093959093740088940F918FBE189527
:1000F00000917400013008F417C0909174009030A2
:10010000089491F0E0917200F09173000191E03752
:1001100008F0E0E6E0937200909174009A950AF47A
:0A01200090E0909374008894089515
:00000001FF
