:020000020000FC
:10000000E2C3189518951895189518951895189590
:100010001895189518951895189518951895189578
:1000200018951913060C1913060C13060C19130650
:100030000C19060C1913060C19130C1913060C19BC
:1000400013062020204156522D5465616D20554ADB
:100050004520202024004C43442048443434373881
:10006000302020382D626974240020204669726D8A
:10007000776172652076302E39302D52442024006D
:10008000202041543930533835333520636F64654F
:100090002020202024002020382D62697420494629
:1000A00020202020202020202020240020204C431D
:1000B000445F484434343738302E61736D2020203B
:1000C0002400D598D698D798DD98DE98DF98D59AF1
:1000D000D69AD79ADD98DE98DF9808950F9300E0BE
:1000E00004BB00E005BB0F9108950F93F7DF0FEFFE
:1000F00004BB00E005BB0F9108950F93EFDFDD987F
:10010000DE9ADF9A03B3DF980078D9F7DE98EDDF47
:100110000F910895E3DFDD98DE9ADF9A03B3DF984D
:100120000078D9F7DF9A03B3DF98DF9A03B3DF983B
:10013000DF9A03B3DF98DF9A03B3DF980F77DE9877
:10014000D4DF0895DADFDD9ADE98DF9A05BBDF9809
:10015000D4DF0895D2DFDD98DE98DF9A05BBDF9803
:10016000CCDF0895CADFBADFDD9ADE9ADF9A03B3E7
:10017000DF98DE98BADFC1DF0895BFDFAFDFDD981B
:10018000DE9ADF9A03B3DF98DE98AFDFB6DF08951B
:100190000F9301E0DFDF0F9108950F9302E0DADFA4
:1001A0000F91089503700460D5DF0895077008600B
:1001B000D1DF08950C700061CDDF08959EDF0C71D2
:1001C0000062C9DF08950F730064C4DF08950068FA
:1001D000C1DF08950F931F9309D02AD0D9DFDDDF47
:1001E0000EEEA02E17D01F910F9108950F9369DF87
:1001F0007CDF00E1E4DF00E1E2DF00E1E0DF08E1D5
:10020000DDDF00E0D3DFC4DF02E0CCDF04E0CEDFDF
:100210000F9108950F931F9300271A2D17FD046067
:1002200016FD026015FD0160C1DF1F910F91089559
:100230000F931F93EF93FF9300E0E1E1F0E05FD0B5
:1002400001E0E5E1F0E05BD002E0E9E1F0E057D069
:1002500003E0EDE1F0E053D09BDF13D016E01F93F5
:1002600000E095D00ED003950430D9F71F911A9570
:10027000B1F78EDF06D08CDFFF91EF911F910F91C8
:1002800008950F931F932F9311E021E053D0E2E4E0
:10029000F0E02BD011E022E04DD0E6E5F0E025D0F3
:1002A0002F911F910F9108951F932F9371DF75DF89
:1002B00010E020E03FD0EAE6F0E017D010E021E0C7
:1002C00039D0E0E8F0E011D010E022E033D0E6E9E8
:1002D000F0E00BD010E023E02DD0ECEAF0E005D008
:1002E0002F911F910895EE0FFF1F0F93C895319620
:1002F000002D043211F026DFF9CF0F9108950F93EE
:100300001F930F92000F000F000F5DDFEE0FFF1F16
:1003100018E0C8953196002D15DF1A95D1F700E049
:1003200056DF0F901F910F9108950F93F3DE19D0B0
:100330000F9108950F9303D04ADF0F9108952F93E3
:10034000203011F420E009C0213011F420E405C070
:10035000223011F424E101C024E5022F010F2F9176
:1003600008953F93043518F034E523E00CC00034C1
:1003700018F030E421E007C0043118F034E122E045
:1003800002C030E020E0102F131B3F9108950F931F
:100390001F932F9310E020E0CDDFD4DE13951832A9
:1003A000E1F710E021E0C6DFCDDE13951832E1F76A
:1003B0002F911F910F9108950F931F932F93BADFE1
:1003C00000E2C0DE13951431D8F32F911F91B2DFF4
:1003D0000F9108950F931F932F930A2D027009F028
:1003E000EBDF2F911F910F9108950F931F932F9380
:1003F0001A2D187011F064D004C0112722279ADF3B
:10040000E9DF2F911F910F9108950F931F932F9361
:100410004F935F937F928F929F92902E5A2D54709C
:1004200009F440C01030F1F50032E1F10D32D1F1A4
:100430000C32C1F10E32B1F10B2D003299F10D32B7
:1004400089F10C3279F10E3269F11F932F9313E188
:100450002A951A956FDF86DE003251F00D3241F099
:100460000E3231F00C3221F0103099F740E013C019
:1004700003E1011B402F139562DF822E712E502F56
:10048000239511275CDF202F042F152F32D0282D24
:10049000172D042F91DF2F911F91140F4BDF092D82
:1004A00051DE98949F908F907F905F914F912F9104
:1004B0001F910F9108950F9300E2B02E0F910895B0
:1004C0000F931F932F9310E420E004E112D014E166
:1004D00020E404E10ED014E524E104E10AD010E0A8
:1004E00023E028DF10E023E067DF2F911F910F91B9
:1004F0000895AF93BF93CF93DF93EF93FF931217BA
:10050000B1F0A12FB22FC02FDC2F0F930A2F5FDE87
:10051000E6ECF0E027DE0193CA95E1F70B2F57DEFA
:10052000E6ECF0E001910EDEDA95E1F70F91FF9134
:10053000EF91DF91CF91BF91AF9108954F933F938A
:100540002F931F93402F3327F0DE103019F45DDF17
:1005500021F010C0133109F43FEF042FF3DD3323F2
:1005600049F011272395243011F43FDF02C0E2DE69
:1005700031DFB02E1F912F913F914F9108950F932E
:100580001F932F93D2DE1127D5DE2F911F910F914C
:100590000895AF930F931F932F933F93C6DE1127B8
:1005A000CEDEA02F33E1A30F0A2F11DEDBDD0032F8
:1005B00019F4AA953A95C2F70A2F09DE0A2FD1DE5F
:1005C000033111F01395B6DE3F912F911F910F91DA
:1005D000AF9108950F931F932F93A7DE2395243097
:1005E00011F403DF03C01127A5DEF4DE64DF2F91D1
:1005F0001F910F9108952F923F920F931F932F9366
:100600003F9393DE212E322E34E1311B98DE0F937F
:10061000112309F01A9593DE202F1F91032F69DF14
:1006200013E1232D87DE00E28DDD222009F02A94DC
:10063000122D232D7FDE3F912F911F910F913F901F
:100640002F9008952F923F920F931F932F933F93D4
:100650006CDE212E322E33E1311B71DE0F931395A8
:100660006EDE102F2F91032F44DF13E1232D62DE66
:1006700000E268DD122D232D5DDE3F912F911F9149
:100680000F913F902F9008952F923F924F92402EBE
:100690001F932F933F9349DE212E322E33E1311BDE
:1006A00041F04DDE0F9313954ADE202F1F91032F4B
:1006B00020DF122D232D3EDE042D40DF3F912F91B0
:1006C0001F91042D4F903F902F9008951F932F93CB
:1006D0002CDE003021F42030A1F02A9511C0013029
:1006E00021F4233071F023950BC0023021F4133133
:1006F00041F0139505C0033021F4103011F01A9524
:1007000019DED9DE2F911F9108951F930F700A30C3
:1007100010F410E301C017E3010F10DF1F910895DB
:100720000F930295F2DF0F91F0DF08950F930F2FD3
:10073000F7DF0E2FF5DF0F9108950F93F03029F4B6
:10074000E03128F00E2FECDF04C0F0DF02C00E2FE6
:10075000DCDF0F9108950F93CF93DF932F92222424
:10076000C0E1D7E220D013D0C8EED3E01CD00FD028
:10077000C4E6D0E018D00BD0CAE0D0E014D007D047
:100780000E2FC3DF2F90DF91CF910F9108950F931C
:10079000222019F4C03009F404C00FEF202E0C2FD2
:1007A000B4DF0F910895AF93BF93AA27BB27EC172F
:1007B000FD0720F0EC1BFD0B1196F9CFCA2FDB2FA4
:1007C000BF91AF910895F89412E00FE51EBF0DBFE1
:0C07D0007894F0E0E8EB3197F1F7FBCFF4
:00000001FF
