:020000020000FC
:0400000058C00FC015
:0200120013C019
:100020001895FFB620E80DE802BF01E008BF09BF40
:1000300011271BBF38EAFFBE1895FFB632BF1395D4
:1000400026FF17C013FD09C0E0FC949AE0FE9498C7
:10005000E69406E00ABFFFBE1895949A10FF07C009
:1000600000E40ABF00E40BBF002709BF2F73FFBEE7
:1000700018950894829B8894E7940FB71930B9F7C4
:100080000FBFEE1C2160ECCF01E003BF00E40BBF0B
:1000900002E005BF2227089520EC00270BBF1FEFC9
:1000A000E42E01E008BF09BF38EA0EEA02BF9498C7
:1000B00008955FEF5FE55DBF52BB8C9A57BB58BB9D
:1000C000E3DF789420FFFECF6E2DE8BA70E07EBBB0
:1000D000E09A4DB3E1DF26FDFECF73957C3091F3BE
:0E00E0007A30A9F7462FD8DF26FDFECFF0CFED
:00000001FF
