:020000020000FC
:1000000070C518954AC018951895189518951895A3
:100010001895189518951895189518951895189578
:1000200018951AD090E09093760090E09093770026
:1000300090E09093740080E690E08093700090933D
:10004000710080E690E08093720090937300B998FD
:100050008B98939A1AD0089590E09093810090E045
:100060009093800088E790E080937C0090937D00DF
:1000700088E790E080937E0090937F0090E09093DB
:10008000820090E090938300089505B7037F086095
:1000900005BF0BB700680BBF08950F938F939F9315
:1000A000EF93FF93909176009923B1F405B70C601C
:1000B00005BF9FEF9093760090917700913058F0B4
:1000C000993048F490917500969506B3027009F046
:1000D0009068909375003AC005B7037F086005BF2C
:1000E00090E09093760090917700939590937700AD
:1000F0009B3061F590E09093770000917500BF937D
:10010000AF9390917400903110F00894D0F0A0E675
:10011000B0E05096E0917000F09171000193FB17F0
:1001200030F009F010F4EA1710F0E0E6F0E0E093A8
:100130007000F09371009091740093959093740007
:100140008894AF91BF9190E090937500FF91EF91EB
:100150009F918F910F9118950F934F938F939F932A
:10016000EF93FF93909174009030889409F0089475
:1001700008F05CC0BF93AF939091740090300894E6
:10018000E1F0A0E6B0E05096E0917200F0917300CB
:100190000191FB1730F009F010F4EA1710F0E0E6D7
:1001A000F0E0E0937200F0937300909174009A95E0
:1001B0000AF490E0909374008894AF91BF91B0F1ED
:1001C000009381000F93A1D08F91409183004078DC
:1001D00029F0082F00D400E2B3D228C0009181009A
:1001E000003021F1BF93AF9390918000943010F0D4
:1001F0000894D0F0A8E7B0E01496E0917C00F0916C
:100200007D000193FB1730F009F010F4EA1710F0AD
:10021000E8E7F0E0E0937C00F0937D0090918000AF
:100220009395909380008894AF91BF91FF91EF9147
:100230009F918F914F910F910895F0E0E3E802C0F4
:10024000F0E0E2E81F93108110231F910895F0E081
:10025000E3E802C0F0E0E2E80F931F9319F4108185
:10026000102B04C01FEF01271081102310831F9152
:100270000F910895F0E0E2E802C0F0E0E3E80F93A8
:10028000E1DF11F0989401C01894E6DF0F91089512
:10029000E199FECFFFBBEEBBE09A4DB30895F8DFC6
:1002A000403031F0401711F03296F9CF3196F0DF3F
:1002B00008950091810040E0003061F0F0E0E0E05E
:1002C000EEDF0027403031F400918100F0E0E2E6FB
:1002D000E6DF0FEF409381000895442700918100ED
:1002E000013630F00B3720F40052009381004FEFBD
:1002F0000895F3DF442341F400918100F0E0E0E849
:10030000CEDF042F00938100089500E499DF49F1C6
:1003100000E498949FDF00918100023109F416C037
:10032000093509F413C0043109F412C0013109F48C
:1003300011C000E885DF89F000918100043109F4E3
:1003400007C0013151F406C000E405C000E203C05B
:1003500000E101C008E098947DDF00E898947ADF1E
:10036000C0C000918100003E09F4B0C0003F09F414
:10037000AFC0023109F4AEC0093509F4ABC0043195
:1003800009F4AAC0013109F4A9C0083519F404E040
:1003900071DFA7C000E854DF09F442C0009181007A
:1003A000043109F499C0013109F498C00A3421F4E8
:1003B0009DEF90938100A8C0053711F400E00BC0B9
:1003C000023711F401E007C00B3611F403E003C05B
:1003D000043719F402E0D6D284C00C3611F43CD2B2
:1003E00080C0093611F442D27CC00A3511F425D2FE
:1003F00078C0003751F401E03DDF01E021DF11F06A
:1004000006E001C007E0F6D06CC0013741F400E11E
:1004100017DF21F008E014DF09F063C36FD261C079
:10042000009181000A3511F408D25BC0063611F440
:100430003ED257C0063709F404C0053029F400E85D
:100440001CDFCED0D0D04DC000E1FADE009181009B
:1004500009F448C0043321F49FED9093810054C007
:10046000023221F49BEE909381004EC00D3421F4B2
:1004700097EF9093810048C0043421F494EF909357
:10048000810042C00C3321F494EE909381003CC073
:10049000023321F492EE9093810036C00C3121F4A6
:1004A00090EE9093810030C0063121F499EE909344
:1004B00081002AC0093421F495EA9093810024C078
:1004C0000D3179F498EE909381001EC000E807C0CA
:1004D00000E405C000E203C000E101C008E0189498
:1004E000B9DE00E000938100E4DE002369F40091AE
:1004F0008100003049F000E2A3DE11F0FADE04C012
:1005000004E09EDE09F0E9DE08950F9301E098DE35
:100510000F9108950000101010100000000018182E
:100520001818000000001C1C1C1C000000001E1EEF
:100530001E1E000000001F1F1F1F0000D598D69828
:10054000D798DD98DE98DF98D59AD69AD79ADD9815
:10055000DE98DF9808950F9300E004BB00E005BB30
:1005600014BB25BB0F9108951FEF20E0F4DF089521
:1005700010E020E0F0DF08950F931F932F93F8DF32
:10058000DD98DE9ADF9A7AD279D203B30078E9F760
:10059000DF98DE98E9DF2F911F910F910895ECDF2E
:1005A000DD98DE980000DF9A05BBDF980895E4DF50
:1005B000DD9ADE980000DF9A05BBDF9808951F934F
:1005C0002F93DADF63D2D4DFDD9ADE9ADF9A56D238
:1005D00055D203B3DF98DE98C7DF2F911F9108959E
:1005E00001E0DDDF089502E0DADF089503700460C2
:1005F000D6DF089507700860D2DF08950C7000619F
:10060000CEDF0895B9DF0C710062CADF08950F7361
:100610000064C5DF08950068C2DF08951F932F931B
:10062000ABDFA6DFDD98DE9ADF9A28D227D203B3AC
:100630000F77DF98DE9898DF2F911F910895012F93
:10064000000F000F000FE3DFEE0FFF1F18E0C8954B
:100650003196002DACDF1A95D1F700E0DCDF08956C
:100660006DDF82DF17D216D200E1CDDF1DD200E1AF
:10067000CADF06D200E1C7DF08E1C4DF00E0BADF6D
:10068000AFDF02E0B3DF04E0B5DF04D20895E8DFB6
:1006900010E0EAE8F2E0D3DF11E0EEE8F2E0CFDFCD
:1006A00012E0E2E9F2E0CBDF13E0E6E9F2E0C7DFD7
:1006B00014E0EAE9F2E0C3DFC2D192DF94DF07E0A1
:1006C00099DF08952F93203011F420E00BC02130E2
:1006D00011F420E407C0223011F424E103C02330D8
:1006E00009F424E5022F010F2F9108953F9304355B
:1006F00018F034E523E00CC0003418F030E421E0B9
:1007000007C0043118F034E122E002C030E020E0FC
:10071000102F131B3F9108950F9380DFE7DF0F9198
:1007200008950F93CFDF77DF0F910895EE0FFF1F2E
:10073000C8953196002D043211F039DFF9CF0895B4
:100740003F932F931F9333270F93E6DF133109F461
:100750003FEF0F912CDF332339F0112723952430FD
:1007600012F036D001C0DDDF1F912F913F91089527
:10077000AF93BF93CF933F931F93C02F121712F0E5
:100780004AF420C03FEFA12FAC0FAA95B22FBC0FA7
:10079000BA9503C03327A12FB22F40DF0F930A2F42
:1007A0003ADF0DDF102F0B2F36DF012F00DF332351
:1007B00019F4A395B39502C0AA95BA95CA9579F78D
:1007C0000F9129DF1F913F91CF91BF91AF91089574
:1007D0000F931F932F9310E420E004E1C9DF14E18D
:1007E00020E404E1C5DF14E524E104E1C1DF10E009
:1007F00023E007D010E023E094DF2F911F910F91A9
:1008000008958FDF00E2D3DE13951431D8F30895F5
:100810000F931F932F9310E020E083DFC8DE139522
:100820001832E1F710E021E07CDFC1DE13951832C9
:10083000E1F72F911F910F9108950F931F932F931D
:100840006BDF2395243011F4C3DF02C0112769DF69
:100850002F911F910F9108950F931F932F935CDF9A
:1008600011275FDF2F911F910F910895AF930F9381
:100870001F932F933F9350DF112724DFA02F33E1E5
:10088000A30F0A2FC8DE9BDE003219F4AA953A9511
:10089000C2F70A2FC0DE0A2F29DF033111F01395AA
:1008A00040DF3F912F911F910F91AF9108952F92AB
:1008B0003F920F931F932F933F932EDF212E322EC3
:1008C00034E1311BFFDE0F93112309F01A95FADE94
:1008D000202F1F91032F4CDF13E1232D22DF00E295
:1008E00066DE222009F02A94122D232D1ADF3F9173
:1008F0002F911F910F913F902F9008952F923F922B
:100900000F931F932F933F9307DF212E322E33E156
:10091000311BD8DE0F931395D5DE102F2F91032FA7
:1009200027DF13E1232DFDDE00E241DE122D232D12
:10093000F8DE3F912F911F910F913F902F900895D6
:100940002F923F924F92402E1F932F933F93E4DEBE
:10095000212E322E33E1311B41F0B4DE0F9313957B
:10096000B1DE202F1F91032F03DF122D232DD9DE9F
:10097000042DE6DE3F912F911F91042D4F903F9063
:100980002F9008951F932F93C7DE003021F420305D
:10099000A1F02A9511C0013021F4233071F0239584
:1009A0000BC0023021F4133141F0139505C0033020
:1009B00021F4103011F01A95B4DE2F911F91089593
:1009C0001F930F700A3010F410E301C017E3010FFA
:1009D000B7DE1F9108950F930295F2DF0F91F0DFBC
:1009E00008950F930F2FF7DF0E2FF5DF0F91089566
:1009F0002020204156522D41534D20436F646520E5
:100A00002020240020204B422C4C434420207630D0
:100A10002E393939202024000F931F932F9311E092
:100A200021E07FDEE0EFF9E083DE11E022E079DE15
:100A3000E4E0FAE07DDE2F911F910F91089547D0F9
:100A4000CFDD13E01F93CCDDE7DF41D000E0E0DE37
:100A5000E3DF3DD0979A03950530C9F704E0D8DE6F
:100A6000DBDF35D097980A95D2F71F911A95103091
:100A700049F7B6DDD1DF30D0B3DD08950000089529
:100A800043EF4A95F1F700000000089540E64A95CB
:100A9000F1F7089555E9F4DF5A95E9F75AE35A95C5
:100AA000F1F700000000089558E2EADF5A95E9F7EF
:100AB00055ED5A95A1F7000000000000089559E097
:100AC000DFDF5A95E9F759EE5A95F1F708956AE094
:100AD000E1DF6A95E9F7089564E6DCDF6A95E9F7F6
:100AE0000895F89402E01FE50EBF1DBF8F9ACFDD79
:100AF00007E080DD96DA7894979A2EDB01D0FDCF5F
:100B0000909180009030889409F0089458F5BF9334
:100B1000AF939091800090300894E1F0A8E7B0E0A6
:100B20001496E0917E00F0917F000191FB1730F068
:100B300009F010F4EA1710F0E8E7F0E0E0937E0027
:100B4000F0937F00909180009A950AF490E0909342
:100B500080008894AF91BF9128F0D7DC11F4F0DDCC
:060B600001C0EEDE089565
:00000001FF
