:020000020000FC
:1000000028C318951895189518951895189518954A
:10001000189518951895AFC21895189518951895B4
:100020001895000008954F934EE54A95F1F74F91CA
:100030000000000008954F9342EF4A95F1F74F9169
:10004000000008955F9359E0F6DF5A95E9F757EEFF
:100050005A95F1F75F91000008955F9358E2EBDF46
:100060005A95E9F754ED5A9591F45F91000000001C
:10007000000000000895E6DFE5DFE4DFE3DFE2DF14
:1000800008955F9355E9D7DF5A95E9F759E35A95F3
:10009000F1F75F9100000895EEDFEDDFECDFEBDFBD
:1000A000EADF0895F9DFF8DFF7DFF6DF0895FADF1A
:1000B000F3DFF2DF08956F9364E6E3DF6A95E9F713
:1000C0006F9108959F93FF93EF93909174009031F7
:1000D00010F0089480F0E0917000F091710021938D
:1000E000E03708F0E0E6E09370009091740093959B
:1000F000909374008894EF91FF919F9108959F933E
:10010000FF93EF9390918900903110F0089480F064
:10011000E0918500F09186000193E53808F0E5E76D
:10012000E09385009091890093959093890088943D
:10013000EF91FF919F9108959F93FF93EF9390917B
:1001400074009030089491F0E0917200F091730087
:100150000191E03708F0E0E6E093720090917400BE
:100160009A950AF490E0909374008894EF91FF912F
:100170009F9108959F93FF93EF9390918900903002
:10018000089491F0E0918700F09188000191E538A2
:1001900008F0E5E7E0938700909189009A950AF4CA
:1001A00090E0909389008894EF91FF919F9108953A
:1001B0009F9390E0909374009F918F939F9380E61C
:1001C00090E080937000909371009F918F918F9336
:1001D0009F9380E690E080937200909373009F91CC
:1001E0008F919F9390E0909389009F918F939F931D
:1001F00085E790E080938500909386009F918F9192
:100200008F939F9385E790E0809387009093880079
:100210009F918F9108957F936F9370918A00609161
:100220008B005F9358E05A95F1F7000000005F9152
:100230006A95B9F77A9599F76F917F9108957F93B1
:100240006F9370918A0060918B005F9352E05A9592
:10025000F1F7000000005F916A95B9F77A9599F778
:100260006F917F91089501E000938A0001E000936F
:100270008B004427A098A898A198A9980895A09ABF
:10028000A198C9DFA098DBDF232FA19AD8DF0894BB
:10029000221F01C0220F59F0A09A18F40000A19863
:1002A00002C0A19A00C0B7DFA098B5DFF3CFA09A33
:1002B000A198B1DFA098989BFECF88949999089453
:1002C000AADF089530FFE3CF441F21E0A09AA3DF07
:1002D000A098989BFECF9FDF889499990894221F3D
:1002E000A8F7A09A479510F4A19801C0A19A93DFAE
:1002F000A098989BFECF8FDF0895A09AA19A8BDFDC
:10030000A0989DDFA19887DF08950F93C39AD2D05C
:100310003F93AFDF330F3060B7DF202FD3DFEDDF48
:100320003F91662311F06A9591F7C3980F91089554
:100330000F938F93C39A330F9CDF3160A5DF08942E
:10034000C1DFDBDFBFDEC3988F910F9108950D0AE7
:100350004932432D536C617665287329204020244F
:10036000EEE4F3E033D1C39A0F938F939F9388E029
:10037000382F7FDF330F306087DF9FEF08F099273A
:10038000BCDF9923C9F4082F0695069506950695B6
:100390000A3018F097E3090F01C00063E8D0082F76
:1003A0000F700A3018F097E3090F01C00063DFD027
:1003B00008E6DDD000E2DBD083958837C8F2E8D0CC
:1003C0009F918F910F91C39808950F3F11F40AE206
:1003D00008951F931127069510F01395FCCF012F58
:1003E00000631F910895E4EFF3E0F0D0EEDFBFD09B
:1003F000CFD008950D0A493243204275737370655A
:100400006564205B6F757465726C6F6F702E6269C6
:10041000745D3A2024000F93FF93EF9300918A00BC
:100420000F3F19F0000F08F40FEF00938A00DBDF95
:10043000EF91FF910F9108950F93FF93EF93009128
:100440008A000F3F11F400E803C0069508F401E0AC
:1004500000938A00C8DFEF91FF910F9108959F9359
:10046000FF93EF93BF93AF939091B000903210F051
:100470000894D0F0ACE8B0E09096E091AC00F09138
:10048000AD000193FB1730F009F010F4EA1710F0FB
:10049000ECE8F0E0E093AC00F093AD009091B00098
:1004A00093959093B0008894AF91BF91EF91FF9195
:1004B0009F9108959F93FF93EF93BF93AF93909174
:1004C000B00090300894E1F0ACE8B0E09096E09194
:1004D000AE00F091AF000191FB1730F009F010F47D
:1004E000EA1710F0ECE8F0E0E093AE00F093AF0014
:1004F0009091B0009A950AF490E09093B00088949F
:10050000AF91BF91EF91FF919F9108959F93EF93CA
:10051000FF939091B0009030089431F0E091AE00DC
:10052000F091AF0000818894FF91EF919F91089521
:100530009F9390E09093B0009F918F939F938CE84E
:1005400090E08093AC009093AD009F918F918F933A
:100550009F938CE890E08093AE009093AF009F91C2
:100560008F91089507E109B908E90AB908955D9BDB
:10057000FECF0CB908955F935FB75F930F93C29A54
:100580000CB16DDFC2980F915F915FBF5F911895BD
:100590000F930DE0ECDF0AE0EADF0F9108950D0AFA
:1005A0004932432D4D61737465722072756E6E69A8
:1005B0006E673A205457495F4D61737465725F30BE
:1005C000322E61736D0D0A24EEE9F5E00F930F9260
:1005D000C8953196002D0F90043211F0C8DFF7CF87
:1005E0000F9108950F935F936F936091B000603007
:1005F000E1F08CDF039503956017B8F05BDFA8F09E
:10060000602F58DF90F0302F313071F453DF68F0F5
:10061000003411F4A5DE09C00C3311F4FCDE05C072
:100620000E3319F409DF01C070DE86DD10F09FDFA4
:10063000FCCF6F915F910F91089500E808B908957C
:10064000B89AB99ABA9ABB9AC09AC198C298C398F4
:100650000895F89402E01FE50EBF1DBFEEDFF0DF46
:1006600067DF80DFA5DDFFDD789416DDADDFBADF63
:02067000FECFBB
:00000001FF
