:020000020000FC
:1000000010C03CC0189538C034C018951895189584
:100010001895189518951895189518951895189578
:100020001895F89402E01FE50EBF1DBF0FE004BB5A
:1000300008E005BB22273FEF0BB700640BBF05B7F5
:10004000026005BF00EC09BF8C9A23BD0FEF04BD11
:1000500006E005BD7894FFCF332329F0239539F4CA
:1000600033272A9504C02A9511F43FEF239523BD29
:100070000895949AF1DF18959498189505B507702E
:0E00800019F0002705BD02C006E005BD189569
:00000001FF
