:020000020000FC
:1000000011C718951895189518951895189518955D
:100010001895189518951895189518951895189578
:100020001895B89AB99ABA9ABB9AC098C198C298CA
:10003000C39808959F9390E0909374009F918F933D
:100040009F9380E690E080937000909371009F9161
:100050008F918F939F9380E690E0809372009093AE
:1000600073009F918F9108959F9390E090938900E2
:100070009F918F939F9385E790E080938500909365
:1000800086009F918F918F939F9385E790E0809357
:100090008700909388009F918F910895CBDFE4DFD4
:1000A00008959F93FF93EF9390917400903008947C
:1000B00091F0E0917200F09173000191E03708F047
:1000C000E0E6E0937200909174009A950AF490E053
:1000D000909374008894EF91FF919F9108959F935E
:1000E000FF93EF9390917400903110F0089480F09A
:1000F000E0917000F09171000193E03708F0E0E6C4
:10010000E09370009091740093959093740088949C
:10011000EF91FF919F9108959F93FF93EF9390919B
:1001200089009030089491F0E0918700F091880068
:100130000191E53808F0E5E7E093870090918900A8
:100140009A950AF490E0909389008894EF91FF913A
:100150009F9108959F93FF93EF9390918900903121
:1001600010F0089480F0E0918500F09186000193F2
:10017000E53808F0E5E7E0938500909189009395D4
:10018000909389008894EF91FF919F9108959F9398
:10019000EF93FF93909174009030089431F0E091C8
:1001A0007200F091730000818894FF91EF919F910C
:1001B00008950091740008950895E199FECFEEBB73
:1001C000FFBBE09A0DB30895EF93FF93E0E0F0E0FA
:1001D000E00F0027F01FF1DF0395FF91EF910895E5
:1001E0001F93D5DFC8F0003240F0003820F0083807
:1001F00058F0003A58F001E00DC0E6DF102FD9DFCB
:10020000011728F003E006C002E004C000E0989463
:10021000089402C0189488941F910895E1DF09F0B2
:10022000ACC0003011F43DDFA8C0013019F439DF53
:100230007ED3A3C0023021F434DF0F7778D39DC082
:1002400030DF08F49AC0003009F497C0013019F487
:1002500028DFDDD092C0023019F423DFADD08DC08D
:10026000033011F4B4D189C0043011F4E2D385C055
:10027000053011F4E8D381C0063031F412DFE02FED
:1002800010DFF02FB4D479C0073031F40ADFE02F4B
:1002900008DFF02FBAD471C0083011F406D46DC055
:1002A000093011F4FEDE69C00A3009F466C00B3073
:1002B00011F422D462C00C3011F483D15EC00D3031
:1002C00011F4E2D35AC00E3011F4EBDE56C00F30F9
:1002D00011F4E7DE52C0003119F4E3DE7CD34DC0E7
:1002E000013131F4DEDE102FDCDE202F2BD245C0B1
:1002F000023119F4D6DE22D440C0033109F43DC0E6
:10030000043109F43AC0053109F437C0063109F463
:1003100034C0073109F431C0083109F42EC0093165
:1003200011F42CD02AC00A3111F4D3D126C00B31DC
:10033000B1F4B7DE102FB5DE1B3581F4013411F4B2
:1003400000E00BC0023411F401E007C0033411F4E3
:1003500002E003C0043411F403E012D40EC00C31E7
:1003600009F40BC00D3109F408C00E3119F499DEFF
:1003700098DE03C00F3109F4EAD108950F931F935B
:100380002F93DBD18EDE000F000F000F37D189DEF7
:10039000FDD087DEFBD085DEF9D083DEF7D081DEAD
:1003A000F5D07FDEF3D07DDEF1D07BDEEFD0CAD199
:1003B0002F911F910F9108951F931A2D07FD0DC0C6
:1003C00006FD0FC005FD11C004FD13C003FD15C0DF
:1003D00001FD16C002FD17C018C01F77A12E1ED246
:1003E00014C01F7BA12E1AD210C01F7DA12E16D2C1
:1003F0000CC01F7EA12E12D208C0177FA12E05C0EF
:100400001D7FA12E02C01B7FA12E1F9108951F9357
:100410001A2D07FD0DC006FD0FC005FD11C004FD1E
:1004200015C003FD19C001FD1AC002FD1BC01CC090
:100430001068A12EF3D118C01064A12EEFD114C002
:10044000106410621F7EA12EE9D10EC010641062EC
:100450001061A12EE3D108C01860A12E05C0126062
:10046000A12E02C01460A12E1F9108951913060C2D
:100470001913060C13060C1913060C19060C191384
:10048000060C19130C1913060C1913062020204111
:1004900056522D5465616D20554A45202020240078
:1004A00020204C434420204932432D536C61766513
:1004B00020202400204669726D77617265207630B5
:1004C0002E32322D5244202024002020205457491F
:1004D0005F536C6176655F30322E61736D2024004E
:1004E0002020204C43445F382E61736D2020202053
:1004F000202020202400202020433A333232322092
:10050000443A363220453A3332202400D598D698E2
:10051000D798DD98DE98DF98D59AD69AD79ADD9845
:10052000DE98DF9808950F9300E004BB00E005BB60
:100530000FEF04BB00E005BB0F9108950F9300E09F
:1005400004BB00E005BB0F9108950F93F7DFDD9822
:10055000DE9A93D392D3DF9A90D303B3DF988DD3EF
:100560000078C1F78AD389D388D387D3DE98DBDFBD
:100570000F910895EADFDD98DE987FD3DF9A05BBFF
:100580007CD3DF987AD3E1DF87D30895DEDFDD9A6D
:10059000DE9873D3DF9A05BB70D3DF986ED3D5DFB7
:1005A0007BD30895D2DFCADFDD9ADE9A66D3DF9A65
:1005B00064D303B3DF9861D3DE98B5DFC6DF6CD3B5
:1005C00008950F9301E0D6DF77D30F9108950F932D
:1005D00002E0D0DF71D30F91089503700460CADF89
:1005E000089507700860C6DF08950C700061C2DFCF
:1005F0000895ABDF0C710062BEDF08950F730064D5
:10060000B9DF4AD3089548D30068B4DF45D30895CD
:100610009CDF94DFDD98DE9A30D3DF9A2ED303B3CC
:10062000DF982BD307FDF8CF28D327D326D325D3A4
:1006300024D3DF9A22D303B3DF981FD31ED3DF9ACC
:100640001CD303B3DF9819D318D3DF9A16D303B39F
:10065000DF9813D312D3DF9A10D303B3DF980DD3EF
:100660000F77DE9860DF08950F931F930F92000FAE
:10067000000F000FC3DFEE0FFF1F18E0C895319683
:10068000002D84DF1A95D1F700E0BDDF0F901F9198
:100690000F9108950F933ADF46DF27D326D300E169
:1006A000A9DF0DD30CD300E1A5DFF6D2F5D200E12E
:1006B000A1DFF2D2F1D208E19CDF01D300E091DFAB
:1006C00080DFFDD202E089DF04E08BDF03D30F91EE
:1006D00008950F931F93DEDF6ED073DF78DF0EEE89
:1006E000A02E9CD01F910F9108952F93203011F4CC
:1006F00020E009C0213011F420E405C0223011F4BB
:1007000024E101C024E5022F010F2F9108953F93AA
:10071000043518F034E523E00CC0003418F030E460
:1007200021E007C0043118F034E122E002C030E0DB
:1007300020E0102F131B3F9108950F9369DFE7DF2F
:100740000F9108950F93D1DF5EDF0F9108950F93FE
:100750001F932F9336DF3BDF10E020E0F3DFE4EB65
:10076000F4E052D010E021E0EDDFEAECF4E04CD010
:1007700010E022E0E7DFE0EEF4E046D010E023E016
:10078000E1DFE6EFF4E040D02F911F910F91089543
:100790000F931F932F9311E021E0D4DFECE8F4E0F6
:1007A00033D011E022E0CEDFE0EAF4E02DD02F914B
:1007B0001F910F9108950F9300E0E6E3F2E054DFFC
:1007C00001E0EAE3F2E050DF02E0EEE3F2E04CDFCA
:1007D00003E0E2E4F2E048DF8FD2F3DED9DF8CD22F
:1007E00016E01F9300E0F7D0D3DF86D203950430E4
:1007F000D1F71F911A95A9F7E4DECADF84D2E1DEB2
:100800000F910895EE0FFF1F0F93C8953196002D9D
:10081000043211F0BBDEF9CF0F9108950F931F93AF
:1008200000271A2D107809F004601A2D107409F0B1
:1008300002601A2D107209F00160D3DE1F910F9132
:1008400008950F931F932F930A2D027009F090D0F3
:100850002F911F910F9108950F931F932F931A2D8E
:10086000187011F0CDD004C0112722276BDFE9DF0B
:100870002F911F910F9108950F931F932F934F93D3
:100880005F937F928F929F92902E5A2D547009F40D
:1008900040C01030F1F50032E1F10D32D1F10C32EF
:1008A000C1F10E32B1F10B2D003299F10D3289F107
:1008B0000C3279F10E3269F11F932F9313E12A95CF
:1008C0001A9540DF6FDE003251F00D3241F00E32EA
:1008D00031F00C3221F0103099F740E013C003E101
:1008E000011B402F139501DF822E712E502F23956F
:1008F0001127FBDE202F042F152F48D0282D172D70
:10090000042F36D02F911F91140F1CDF092D3EDECE
:1009100098949F908F907F905F914F912F911F910E
:100920000F9108950F9300E2B02E0F9108954F9309
:100930003F932F931F93402F3327FFDE103019F47E
:100940009BDF21F010C0133109F43FEF042F1EDEAE
:10095000332349F011272395243011F47DDF02C0A1
:10096000F1DE6FDFB02E1F912F913F914F910895CF
:100970000F931F932F93E6DE00E208DE13951431E8
:10098000D8F32F911F91DEDE0F910895AF93BF939F
:10099000CF93DF93EF93FF931217B1F0A12FB22FF4
:1009A000C02FDC2F0F930A2F2EDEEAE8F0E0FADDED
:1009B0000193CA95E1F70B2F26DEEAE8F0E00191FA
:1009C000E5DDDA95E1F70F91FF91EF91DF91CF919E
:1009D000BF91AF9108950F931F932F9310E020E0E4
:1009E000B1DED4DD13951832E1F710E021E0AADE84
:1009F000CDDD13951832E1F72F911F910F910895D6
:100A00000F931F932F9310E420E004E1BFDF14E164
:100A100020E404E1BBDF14E524E104E1B7DF10E0EA
:100A200023E090DE10E023E0A3DF2F911F910F91D0
:100A300008950F931F932F9380DE112783DE2F914C
:100A40001F910F910895AF930F931F932F933F938F
:100A500074DE11274ADEA02F33E1A30F0A2FD3DD66
:100A6000A1DD003219F4AA953A95C2F70A2FCBDD21
:100A70000A2F4DDE033111F0139564DE3F912F9163
:100A80001F910F91AF9108950F931F932F9355DEF0
:100A90002395243011F4E0DE03C0112753DED1DEAC
:100AA00041DF2F911F910F9108952F923F920F9345
:100AB0001F932F933F9341DE212E322E34E1311BC1
:100AC00014DE0F93112309F01A950FDE202F1F91CA
:100AD000032F5CDF13E1232D35DE00E257DD2220FA
:100AE00009F02A94122D232D2DDE3F912F911F9175
:100AF0000F913F902F9008952F923F920F931F9345
:100B00002F933F931ADE212E322E33E1311BEDDD80
:100B10000F931395EADD102F2F91032F37DF13E189
:100B2000232D10DE00E232DD122D232D0BDE3F914E
:100B30002F911F910F913F902F9008952F923F92E8
:100B40004F92402E1F932F933F93F7DD212E322E8D
:100B500033E1311B41F0C9DD0F931395C6DD202F22
:100B60001F91032F13DF122D232DECDD042DDFDE6B
:100B70003F912F911F91042D4F903F902F900895FA
:100B80001F932F93DADD003021F42030A1F02A9555
:100B900011C0013021F4233071F023950BC00230D5
:100BA00021F4133141F0139505C0033021F41030C6
:100BB00011F01A95C7DDB6DE2F911F9108951F938E
:100BC0000F700A3010F410E301C017E3010FAFDE1D
:100BD0001F9108950F930295F2DF0F91F0DF0895B2
:100BE0000F930F2FF7DF0E2FF5DF0F9108950F935F
:100BF000F03029F4E03128F00E2FECDF04C0F0DFF4
:100C000002C00E2FDCDF0F9108950F93CF93DF9377
:100C10002F922224C0E1D7E220D013D0C8EED3E037
:100C20001CD00FD0C4E6D0E018D00BD0CAE0D0E082
:100C300014D007D00E2FC3DF2F90DF91CF910F91EB
:100C400008950F93222019F4C03009F404C00FEF67
:100C5000202E0C2FB4DF0F910895AF93BF93AA27D6
:100C6000BB27EC17FD0720F0EC1BFD0B1196F9CF0D
:100C7000CA2FDB2FBF91AF910895000008950F9305
:100C800003E30A95F1F70F9108950F9300E40A9595
:100C9000F1F700000F9108950F9303E80A95F1F71B
:100CA0000F9108950F9309E0F7DF0A95E9F70AE736
:100CB0000A95F1F70F910895F5DFF4DF08950F938A
:100CC00008E2EADF0A95E9F70CE50A95F1F700007A
:100CD0000F9108950F9304E9DFDF0A95E9F703E721
:100CE0000A95F1F700000F9108950F9304E6DADFFB
:100CF0000A95E9F70F9108950F930AE0EBDF0A9543
:100D0000E9F70F9108950F9304E6E4DF0A95E9F7F8
:100D10000F91089500B3047110B314710117E1F33A
:100D20000895849BFECFF6DF02FD02C012FD02C0D3
:100D30000000F7CF08958C9894988A989298089517
:100D40000F93182E082FCBD969DA0F910895812DB2
:100D50000895E0DF14FF60C012FF01C05FC0C29AB7
:100D60008499FECF91E0849BFECF0894829B889467
:100D70008499FECF991FB8F7792F7695703339F0A3
:100D80008A98849BFECF8499FECF8A9846C0C39AE6
:100D90008A9A917001F5849BFECF8499FECF8A9840
:100DA000849BFECF81E00894829B8894881FB2DFE9
:100DB00014FF03C012FFD3CF31C0849BFECF089431
:100DC000829B88948499FECF881FB8F78A9A8C9A60
:100DD000B7DF8C98E0CF8C9ABADF8C98849BFECFDB
:100DE0008499FECF8A980894881F08F08A9A08F49C
:100DF0008A980000849BFECF8499FECF8A98880F42
:100E0000A1F7849BFECF0894829B88948499FECF9F
:100E100010F7849BFECF9DCFC19A83DFC298C39801
:100E2000C1980895F89402E01FE50EBF1DBFF9D8E0
:0E0E300050DCC09A33D97FDF78948BDFFECF81
:00000001FF
