:020000020000FC
:1000000071C2189518951895189518951895189502
:10001000189518951895A5C11895189518951895BF
:100020001895B89AB99ABA9ABB9AC09AC198C298C8
:10003000C3980895000008954F934EE54A95F1F74F
:100040004F910000000008954F9342EF4A95F1F759
:100050004F91000008955F9359E0F6DF5A95E9F754
:1000600057EE5A95F1F75F91000008955F9358E2BB
:10007000EBDF5A95E9F754ED5A9591F45F91000042
:100080000000000000000895E6DFE5DFE4DFE3DFC5
:10009000E2DF08955F9355E9D7DF5A95E9F759E311
:1000A0005A95F1F75F9100000895EEDFEDDFECDF88
:1000B000EBDFEADF0895F9DFF8DFF7DFF6DF089519
:1000C000FADFF3DFF2DF08956F9364E6E3DF6A950A
:1000D000E9F76F9108959F93FF93EF9390917400C8
:1000E000903110F0089480F0E0917000F091710070
:1000F0002193E03708F0E0E6E093700090917400FF
:100100009395909374008894EF91FF919F91089537
:100110009F93FF93EF9390918900903110F0089492
:1001200080F0E0918500F09186000193E53808F0B9
:10013000E5E7E0938500909189009395909389007D
:100140008894EF91FF919F9108959F93FF93EF9370
:10015000909174009030089491F0E0917200F091C9
:1001600073000191E03708F0E0E6E09372009091AF
:1001700074009A950AF490E0909374008894EF913B
:10018000FF919F9108959F93FF93EF939091890022
:100190009030089491F0E0918700F09188000191EF
:1001A000E53808F0E5E7E0938700909189009A959B
:1001B0000AF490E0909389008894EF91FF919F91C9
:1001C00008959F9390E0909374009F918F939F93D5
:1001D00080E690E080937000909371009F918F91E2
:1001E0008F939F9380E690E08093720090937300CA
:1001F0009F918F919F9390E0909389009F918F930F
:100200009F9385E790E080938500909386009F916F
:100210008F918F939F9385E790E0809387009093D1
:1002200088009F918F9108959F93909189009030BD
:10023000889409F008949F9150F4A5DF40F00F33A3
:1002400019F430E33BD1F0CF30E32CD1EDCF9F93C5
:10025000909174009030889409F008949F9120F454
:1002600074DF10F078D0F3CF08959F93FF93EF934E
:10027000BF93AF9390919E00903110F00894D0F00E
:10028000AAE8B0E05096E0919A00F0919B000193AB
:10029000FB1730F009F010F4EA1710F0EAE8F0E08C
:1002A000E0939A00F0939B0090919E009395909319
:1002B0009E008894AF91BF91EF91FF919F91089517
:1002C0009F93FF93EF93BF93AF9390919E009030D5
:1002D0000894E1F0AAE8B0E05096E0919C00F0911B
:1002E0009D000191FB1730F009F010F4EA1710F0AF
:1002F000EAE8F0E0E0939C00F0939D0090919E006E
:100300009A950AF490E090939E008894AF91BF91E3
:10031000EF91FF919F9108959F9390E090939E009D
:100320009F918F939F938AE890E080939A00909397
:100330009B009F918F918F939F938AE890E0809389
:100340009C0090939D009F918F91089507E109B9BA
:1003500008E90AB90895C29A5D9BFECF0CB9C2980C
:1003600008955F935FB75F930F93C29A0CB17DDFDF
:10037000C2980F915F915FBF5F911895E0E9F3E03C
:10038000C8953196002D043211F0E5DFF9CF0895BC
:100390000D0A41565220274932432D4D6173746531
:1003A0007227205253323332202D3E2052533233A3
:1003B000322050430D0A24009F9390919E0090306C
:1003C000889409F008949F9140F400919E000130B8
:1003D00008F403C075DF08F09BDE08956F9368E0B2
:1003E0005F9358E05A95F1F7000000005F916A951D
:1003F000B9F76F9108956F9368E05F9352E05A9553
:10040000F1F7000000005F916A95B9F76F910895C8
:10041000A09AA198E3DFA098EEDF232FA09AEBDF4C
:100420000894221F01C0220F59F0A09A18F400006E
:10043000A19802C0A09A00C0D1DFA098CFDFF3CF6F
:10044000A09AA198CBDFA098989BFECF8894999909
:100450000894C4DF089530FFE3CF441F21E0A09A41
:10046000BDDFA098BBDF889499990894221FB8F744
:10047000A09A479510F4A19801C0A19AAFDFA09867
:10048000989BFECFABDF0895A09AA19AA7DFA09812
:10049000B2DFA198A3DF08954427A098A898A19857
:1004A000A9980895C39AF8DF330F3060B6DF20E0D3
:1004B000D2DF202FD0DFE8DFC3980895C39A8F934F
:1004C000330F832FE9DF3060A8DF382F3160A0DFE2
:1004D0000894C1DFD9DFFFDD8F91C398089500E84C
:1004E00008B90895F89402E01FE50EBF1DBFF7DFBD
:1004F00098DD12DF2BDF65DECFDF7894D6DD3EDFBF
:060500005BDF92DEFDCF7F
:00000001FF
