:020000020000FC
:100000008CC01895189518951895189518951895E9
:100010001895189518951895189518951895189578
:10002000189507E109B908E90AB908955D9BFECF63
:100030000CB908955F935FB75F930F930CB10F9165
:100040005F915FBF5F9118950F930DE0EFDF0AE0BE
:10005000EDDF0F9108950F9300E2E8DF0F9108950F
:100060000D0A4156522072756E6E696E673A2044D1
:1000700043435F4465636F646572322E61736D0D37
:100080000A24E0E6F0E00F930F92C8953196002D18
:100090000F90043211F0CADFF7CF0F9108959F93AC
:1000A00092EF9A95F1F79F9100000895AF93A9E020
:1000B000F6DFAA95E9F7A7EEAA95F1F7AF91000050
:1000C0000895F4DFF3DFF2DFF1DFF0DF0895F9DF09
:1000D000F8DFF7DFF6DFF5DF0895F9DFF8DFF7DFA8
:1000E000F6DF0895BF93BAE0F8DFBA95E9F7BF915C
:1000F0000895A79AAF98A69AAE9808958E98969864
:100100000895002709BF00270FBD01E00EBD00E0E4
:1001100009BF00270DBD0CBD0895F89412E00FE54E
:100120001EBF0DBFE6DFEADFECDF7894869BFECFD3
:1001300000270DBD0CBD8699FECFECB5FDB5EF37A0
:1001400001E0F007B8F0E83D01E0F00770F0E739B2
:1001500002E0F00778F0E13000E2F00708F00AC0B2
:10016000AF98AE9800E362DF09C0AF98AE9A01E3A2
:0E0170005DDF04C0AF9AAE980AE258DFD7CF29
:00000001FF
