:020000020000FC
:1000000022C0189518951895189518950BC0189535
:1000100008C01895189507C0189518951895189543
:100020001895189518951F933CB110E0232F1BBD10
:100030002ABD1F91189519B918E91AB908955D9B41
:10004000FECF1CB9089512E02FE51EBF2DBF11B3DE
:10005000106211BB1FB51C731160106C1FBD1EB563
:10006000187F15601EBD10E02FEF1DBD2CBD10E0E8
:1000700020E81BBD2ABD18B71B7E1460106118BF95
:1000800019B71B7E1460106119BF17E1D4DF789493
:02009000FFCFA0
:00000001FF
