:020000020000FC
:10000000BCC21895B2C018951895189518951895F2
:100010001895189518951895189518951895189578
:10002000189590E09093760090E09093770090E0A0
:100030009093780090E09093790090E090937A000C
:1000400090E090937C0090E09093740080E690E0C4
:10005000809370009093710080E690E0809372002E
:100060009093730001D0089505B7037F086005BF22
:100070000BB700680BBF08950BB700600BBF089566
:10008000E199FECFFFBBEEBBE09A4DB30895EF932D
:10009000FF934F9340E0F0E0E0E0F2DF403031F0DA
:1000A000401711F03296F9CF3196EADF042F4F91C5
:1000B000FF91EF910895013622F00A3712F40052B1
:1000C0000CC0F0E0E2E6DCDF403039F0401711F020
:1000D0003296F7CF3196D4DF042F08950F93009115
:1000E0007800002389F090E09093780000917500EB
:1000F000043221F490E09093790026C0023B19F479
:1001000090E09093790020C0009175000C3E19F4A6
:10011000CED0D0D019C0003E21F49FEF909378004C
:1001200013C0043221F49FEF909379000DC0023B7D
:1001300021F49FEF9093790007C0043B11F45FD145
:1001400003C00C3C11F474D100E0A1DF00937500F2
:10015000003049F000917900002329F000917500EA
:10016000AADF009375000F9108959F930F939091CC
:1001700076009923B1F405B70C6005BF9FEF90930B
:1001800076009091770091305AF098304AF490912F
:100190007500969506B3027009F09068909375000B
:1001A00032C005B7037F086005BF90E090937600EA
:1001B000909177009395909377009B3021F590E094
:1001C000909377008BDF009175000030C9F090911B
:1001D0007400903110F0089480F0E0917000F0917C
:1001E00071000193E03708F0E0E6E0937000909131
:1001F0007400939590937400889490E090937C00A1
:1002000090E0909375000F919F9118950000101049
:1002100010100000000018181818000000001C1C26
:100220001C1C000000001E1E1E1E000000001F1FE0
:100230001F1F0000D598D698D798DD98DE98DF98D4
:10024000D59AD69AD79ADD98DE98DF9808950F93BD
:1002500000E004BB00E005BB14BB25BB0F91089573
:100260000F931F932F9310E020E0F1DFDD98DE9ACB
:10027000DF9A59D158D113B317FDFDCFDF98DE981F
:100280001FEF20E0E4DF2F911F910F910895E8DF29
:10029000DD98DE980000DF9A05BBDF980895E0DF67
:1002A000DD9ADE980000DF9A05BBDF98089501E033
:1002B000EEDF089502E0EBDF089503700460E7DFEE
:1002C000089507700860E3DF08950C700061DFDFB8
:1002D0000895C6DF0C710062DD98DE980000DF9A99
:1002E00005BBDF9808950F730064D1DF089500689F
:1002F000CEDF08951F932F9310E020E0A8DFDD9854
:10030000DE9ADF9A10D10FD103B3DF981FEF20E000
:100310009EDF102F110F087F2F911F9108958ADF04
:100320001FEF20E094DF07D106D100E1D3DF0DD12C
:1003300000E1D0DFFAD000E1CDDF08E1CADF00E064
:10034000C0DFB5DF02E0B9DF04E0BBDFF4D0089521
:10035000E6DF10E0E6E0F1E016D011E0EAE0F1E0DF
:1003600012D012E0EEE0F1E00ED013E0E2E1F1E0B5
:100370000AD014E0E6E1F1E006D0BAD098DF9ADFC7
:1003800007E09FDF0895012F000F000F000FABDF84
:10039000EE0FFF1F18E0C8953196002D80DF1A95EB
:1003A000D1F700E0A4DF0895C8953196002D0432FE
:1003B00011F075DFF9CF08952F931F930F939ADFF4
:1003C0000F77102F2227033119F410E42FEF0EC0FE
:1003D000033519F414E12FEF09C0073219F414E5BD
:1003E0002FEF04C0073611F410E02FEF0F9157DF05
:1003F000222311F0012F7BDF1F912F9108950F937E
:100400001F932F9377DF0F77043512F000E009C0B8
:10041000003412F004E105C0043112F004E501C01B
:1004200000E4202F11272AD02F911F910F910895BA
:100430000F931F932F930DD0103029F01A951ED0D3
:1004400000E22DDF1BD02F911F910F9108954FDFF8
:1004500008950F934FDF0F77043512F024E509C09C
:10046000003412F020E405C0043112F024E101C090
:1004700020E0102F121B02D00F9108950F93022F2E
:10048000010F35DF0F910895F9DF00E208DF1395C2
:100490001431D8F308950F931F932F9310E020E0A9
:1004A000EDDFFDDE13951832E1F710E020E4E6DF22
:1004B000F6DE13951832E1F72F911F910F910895F1
:1004C0001F930F700A3010F410E301C017E3010FFF
:1004D000E6DE1F9108950F930295F2DF0F91F0DF92
:1004E00008950F930F2FF7DF0E2FF5DF0F9108956B
:1004F0003FD0DDDE13E01F93DADE3AD000E0CBDF41
:10050000979A36D003950530D1F704E0C4DF30D098
:1005100097980A950F3FD1F71F911A95103059F708
:1005200027D0C5DE08950000089543EF4A95F1F7FE
:1005300000000000089555E9F8DF5A95E9F75AE3FD
:100540005A95F1F700000000089558E2EEDF5A9541
:10055000E9F755ED5A95A1F7000000000000089555
:1005600059E0E3DF5A95E9F759EE5A95F1F7089506
:100570006AE0E1DF6A95E9F70895F89402E01FE583
:100580000EBF1DBF8F9AB9988B98939AE1DE06E053
:1005900098DE47DD7894979A01D0FECF9091740051
:1005A0009030889409F00894C8F4909174009030C9
:1005B000089491F0E0917200F09173000191E0379E
:1005C00008F0E0E6E0937200909174009A950AF4C6
:0E05D00090E090937400889408F061DE089526
:00000001FF
