:1000000010C06FC0189518951895189518951895E3
:100010001895A9C2189518951895189518951895BA
:1000200018958FE181BD87E181BD8FE58DBFC0E46B
:10003000E8E34E2E82E08EBFD2E0F2E05F2EEEEFDC
:10004000F1E0A0E6B0E088278D933197E9F76624C8
:100050008BEE81BB9498929885B78C7F826085BF28
:1000600086E083BF7894A1E6B0E080B38C93A1E6EC
:10007000B0E08C919FEF89278C93A1E6B0E08C9142
:1000800084718C9300916100003009F4ECCF00B3CF
:1000900044E10423A1E6B0E00C9300B344E104235F
:1000A000A2E6B0E00C934091610000916200041759
:1000B00009F007C000B344E10423A2E6B0E00C93CA
:1000C000F2CFA2E6B0E00C9102FB00270EF401E0B3
:1000D00040E0041709F401C0C6CF20D0FFCFF89448
:1000E000FFCF0F921F922F923F924F925F927F927B
:1000F0008F929F92AF92BF920F931F932F933F9334
:100100004F935F936F937F938F939F93AF93BF931F
:10011000CF93DF93EF93FF938FB78F9381E080931B
:1001200066008499FECF19C08499FECF00916600C5
:100130004FE70423A1E6B0E00C9300916100003387
:1001400009F006C07091600070627093600005C095
:10015000709160007F7D70936000709160007068A6
:1001600070936000849BFECF0027BB27A0E38C9197
:1001700084FB0EF401E040E0041709F005C0709123
:1001800060007F7770936000A6E6B0E00C9107FBFB
:1001900000270EF401E040E0041709F006C070915A
:1001A00060007F7B7093600005C070916000706498
:1001B0007093600091E0A6E6B0E069D2009166001D
:1001C000A0E6B0E08C9187FB882780F9482F042BAC
:1001D000A6E6B0E00C93A0E6B0E08C9186FBA0E62A
:1001E000B0E08C9187F98C930027A0E6B0E08C9169
:1001F00087FB0EF401E040E0041709F001C094CF42
:100200008499FECF0027A0E6B0E08C9185FB0EF428
:1002100001E041E0041709F002C002C001C0C0C102
:100220008A9A849BFECFA6E6B0E00C9100FB0027E3
:100230000EF401E040E0041709F006C07091600080
:100240007F7E7093600005C0709160007061709354
:10025000600091E0A6E6B0E022D20027A0E6B0E080
:100260008C9184FB0EF401E040E0041709F001C01A
:10027000D4C08091680080936500709160007068C0
:1002800070936000A5E6B0E00C9107FB00270EF428
:1002900001E040E0041709F006C0709160007F7B28
:1002A0007093600005C0709160007064709360008E
:1002B000A5E6B0E08C9187FBA0E6B0E08C9186F9D2
:1002C0008C9391E0A5E6B0E0E2D100916500A0E654
:1002D000B0E08C9187FB882780F9482F042BA5E696
:1002E000B0E00C93A0E6B0E08C9186FBA0E6B0E015
:1002F0008C9187F98C938499FECF0027A0E6B0E01B
:100300008C9187FB0EF401E041E0041709F002C074
:100310008A9801C08A9A0091650040E80423A1E60A
:10032000B0E00C9300916100003009F006C07091BC
:1003300060007F777093600005C070916000706806
:100340007093600091E0A5E6B0E0A1D1849BFECF60
:100350008499FECF0027A0E6B0E08C9187FB0EF4D5
:1003600001E041E0041709F025C08A98009165007A
:1003700040E80423A1E6B0E00C9300916100003056
:1003800009F006C0709160007F777093600005C02F
:100390007091600070687093600091E0A5E6B0E035
:1003A00076D100916500003009F402C0CFCF01C0C2
:1003B00008C007C08A9A00916500003009F401C0A6
:1003C000C5CF849BFECF8499FECF8A98849BFECFB5
:1003D0000027BB27A0E38C9182FB0EF401E041E0F3
:1003E000041709F006C07091600070687093600097
:1003F00005C0709160007F77709360000027A0E6D1
:10040000B0E08C9187FB0EF401E040E0041709F0A6
:1004100001C02FCF8499FECFCDC08499FECF8A989A
:10042000849BFECFA1E6B0E080B38C93A1E6B0E060
:100430008C9184718C93A2E6B0E080B38C93A2E699
:10044000B0E08C9184718C934091610000916200C6
:10045000041709F001C0EFCF0091620044E00423CB
:10046000A3E6B0E00C9300916300003009F001C0F6
:100470000EC00091620042E00423A3E6B0E00C93BA
:1004800000916300003009F001C048CEC9C082E08D
:10049000809365000091610042E00423A3E6B0E090
:1004A0000C9300916300003009F403C083E0809353
:1004B00065008499FECF7091600070687093600051
:1004C000849BFECF0027BB27A0E38C9182FB0EF418
:1004D00001E040E0041709F005C0709160007F77EB
:1004E000709360000091650040E80423A3E6B0E04B
:1004F0000C9391E0A5E6B0E0CAD00027A0E6B0E0FA
:100500008C9187FB0EF401E041E0041709F005C06F
:10051000A5E6B0E08C918F5F8C9300916300003072
:1005200009F006C0709160007F777093600005C08D
:10053000709160007068709360000027A0E6B0E0E2
:100540008C9187FB0EF401E040E0041709F001C034
:10055000B0CF8499FECF8A9A849BFECF80916500AC
:10056000809368005ACF0F921F922F923F924F9222
:100570005F927F928F929F92AF92BF920F931F9341
:100580002F933F934F935F936F937F938F939F939B
:10059000AF93BF93CF93DF93EF93FF938FB78F9377
:1005A000849BFECF8499FECF89B78E7F89BF8BB79E
:1005B00080648BBF849BFECFA1E6B0E080B38C93B8
:1005C000A1E6B0E08C9184718C93A2E6B0E080B398
:1005D0008C93A2E6B0E08C9184718C934091610081
:1005E00000916200041709F001C0EFCF0091620092
:1005F00044E00423A3E6B0E00C93009163000030D4
:1006000009F001C032C00091620042E00423A3E679
:10061000B0E00C9300916300003009F001C07ECD82
:1006200085B78C7F85BF85B78C7F826085BF8F91B2
:100630008FBFFF91EF91DF91CF91BF91AF919F91CC
:100640008F917F916F915F914F913F912F911F916A
:100650000F91BF90AF909F908F907F905F904F9041
:100660003F902F901F900F90189589EF82BF89B708
:10067000816089BF8BB78F7B8BBF08953197F1F76E
:100680000895689462F80895E89462F808959030A7
:1006900029F08C91880F9A95E9F78C930895903002
:0E06A00029F08C9186959A95E9F78C93089530
:00000001FF
