:020000020000FC
:1000000010C084C0189579C06BC0189518951895C4
:1000100076C01895189518951895189518951895EF
:100020001895F89402E01FE50EBF1DBF0FE304BB57
:1000300000E105BB8D9A8C9A8F9A66277FEF222765
:100040003FEF442755278FEFA4E10BB700640BBFA8
:1000500005B7026005BF04EC09BF63BD00270BBDF7
:100060002ABD002709BD48BD0FEF04BD00270DBD07
:100070002CBD06E005BD01EA0FBD04E00EBD78947D
:10008000FFCF772329F0639539F477276A9504C069
:100090006A9511F47FEF639563BD08959F933323B1
:1000A00029F0239539F433272A9504C02A9511F4B1
:1000B0003FEF239599279BBD2ABD9F9108959F935C
:1000C000552329F0439539F455274A9504C04A959C
:1000D00011F45FEF4395992799BD48BD9F9108950D
:1000E0009F93979AAA9521F4A4E195B3991F95BB84
:1000F000882309F0C6DF9F91189597981895882353
:1001000011F0CCDFDCDF1895189518959F9380953A
:0801100090E195BB9F91189549
:00000001FF
