:020000020000FC
:1000000002C218951895189518951895F4C1189569
:100010001895189518951895189518951895189578
:100020001895010101010101010101010101010115
:1000300000010000000001000000010101010100B9
:1000400000010000010101010100010101010101A4
:100050000101010101010101010100010101010191
:10006000010101000000000000000000000101018A
:100070000101010101010101010101010101010170
:100080000101010100010101010101010100000064
:100090000000000000000001010101010101010157
:1000A0000101010101010101010101010101000141
:1000B0000101010101010100000000000000000039
:1000C0000001010101010101010101010101010121
:1000D0000101010101010101000101010101010111
:1000E000010000000000000000000001010101010A
:1000F00001010101010101010101010101010101F0
:1001000001010001010101010101010000000000E5
:1001100000000000000101010101010101010101D4
:1001200001010101010101010101010100010101C0
:1001300001010101010000000000000000000001B9
:10014000010101010101010101010101010101019F
:100150000101010101010001010101010101010091
:100160000000000000000000000101010101010188
:10017000010101010101010101010101010101016F
:100180000001010101010101010000000000000067
:100190000000000101010101010101010101010152
:1001A0000101010101010101010100010101010140
:1001B0000101010000000000000000000001010139
:1001C000010101010101010101010101010101011F
:1001D0000101010100010101010101010100000013
:1001E0000000000000000001010101010101010106
:1001F00001010101010101010101010101010001F0
:1002000001010101010101000000000000000000E7
:1002100000010101010101010101010101010101CF
:1002200001010101010101010001000000000100C4
:1002300000000101010100000001000001010100B6
:10024000010001010101010101010101010101019F
:100250000101000101010101010101000000000094
:100260000000000000010101010101010101010183
:10027000010101010101010101010101000101016F
:100280000101010101000000000000000000000168
:10029000010101010101010101010101010101014E
:1002A0000101010101010001010101010101010040
:1002B0000000000000000000000101010101010137
:1002C000010101010101010101010101010101011E
:1002D0000001010101010101010000000000000016
:1002E0000000000101010101010101010101010101
:1002F00001010101010101010101000101010101EF
:1003000001010100000000000000000000010101E7
:1003100001010101010101010101010101010101CD
:1003200001010101000101010101010101000000C1
:1003300000000000000000010101010101010101B4
:10034000010101010101010101010101010100019E
:100350000101010101010100000000000000000096
:10036000000101010101010101010101010101017E
:10037000010101010101010100010101010101016E
:100380000100000000000000000000010101010167
:1003900001010101FFFF213019F0969A21E017C0F9
:1003A000969820E03196C895102D1F3F49F01030E7
:1003B00011F414E601C01CE300E00BBD1ABD07C038
:1003C00005E10BBD0AE90ABDE2E2F0E020E0089594
:1003D000002709BF8E9A00270FBD0AE00EBD00E17D
:1003E00009BF21E0969A00E00BBD0CE30ABD00278F
:1003F0000DBD0CBD08950F930FB70F93CCDF0F9178
:100400000FBF0F911895F89402E01FE50EBF1DBFB6
:0A041000E2E2F0E0DDDF7894FFCFB8
:00000001FF
