:020000020000FC
:1000000082C11895189518951895189518951895F2
:10001000189518951895189518951895D3C1189591
:1000200018950000089543EF4A95F1F7000000008D
:10003000089555E9F8DF5A95E9F75AE35A95F1F72B
:1000400000000000089558E2EEDF5A95E9F755EDFB
:100050005A95A1F7000000000000089559E0E3DF81
:100060005A95E9F759EE5A95F1F708956AE0E1DFFC
:100070006A95E9F70895D598D698D798DD98DE98CF
:10008000DF98D59AD69AD79ADD98DE98DF980895AA
:100090000F9300E004BB00E005BB14BB25BB0F9130
:1000A00008950F931F932F9310E020E0F1DFDD9868
:1000B000DE9ADF9AB6DFB5DF13B317FDFDCFDF9809
:1000C000DE981FEF20E0E4DF2F911F910F9108953C
:1000D000E8DFDD98DE980000DF9A05BBDF98089521
:1000E000E0DFDD9ADE980000DF9A05BBDF98089517
:1000F000C8953196002D043211F0F2DFF9CF089542
:1001000001E0E6DF089502E0E3DF08950370046094
:10011000DFDF089507700860DBDF08950C70006171
:10012000D7DF0895BEDF0C710062DD98DE98000015
:10013000DF9A05BBDF9808950F730064C9DF089547
:100140000068C6DF08951F932F9310E020E0A0DF22
:10015000DD98DE9ADF9A65DF64DF03B3DF981FEF77
:1001600020E096DF102F110F087F2F911F91089527
:1001700082DF1FEF20E08CDF5CDF5BDF00E1D3DF9D
:1001800062DF00E1D0DF4FDF00E1CDDF08E1CADF51
:1001900000E0C0DFB5DF02E0B9DF04E0BBDF49DF2C
:1001A00008950F93022F010FCBDF0F910895F9DF10
:1001B00000E296DF13951431D8F308950F931F933F
:1001C0002F9310E020E0EDDF8BDF13951832E1F77D
:1001D00010E020E4E6DF84DF13951832E1F72F9179
:1001E0001F910F910895012F000F000F000FA4DF42
:1001F000EE0FFF1F18E0C8953196002D71DF1A959C
:10020000D1F700E09DDF08951F930F700A3010F4BE
:1002100010E301C017E3010F63DF1F9108950F93EF
:100220000295F2DF0F91F0DF08950F930F2FF7DFA4
:100230000E2FF5DF0F91089544652053746F656CA0
:10024000204C4344240012DF5BDF13E01F9358DF90
:100250000DDF00E0B3DF0ADF03950530D9F704E0D6
:10026000ADDF04DF0A950F3FD9F71F911A951030C3
:1002700069F7FCDE45DF0895415652204020372EB5
:1002800033373238204D487A2E244C4344204020C6
:10029000382D626974244144432030303030682066
:1002A0002400434F4D4D2D52782F54783A20303052
:1002B000682030306824000000001000100010009A
:1002C00010000000000000000000180018001800D6
:1002D000180000000000000000001C001C001C00B2
:1002E0001C0000000000000000001E001E001E0098
:1002F0001E0000000000000000001F001F001F0083
:100300001F0000000000F89402E01FE50EBF1DBFB3
:100310002FDF10E0EBE5F1E066DF11E0E3E6F1E06E
:1003200062DF12E0EBE6F1E05EDF13E0E3E7F1E02D
:100330005ADF14E0EBE7F1E056DF85DF00E000DF95
:10034000E8E7F2E0D5DE00E4FBDEEAE8F2E0D0DE4A
:1003500004E1F6DEE6E9F2E0CBDE04E5F1DEE2EA16
:10036000F2E0C6DE29D07894369A2FD0FECF19DF7E
:100370001E2F1F772E2F220F2F2F221F2770022FA5
:1003800003950F93203021F004E0AADE2A95E1F7CF
:10039000012F0F772227093118F009412395FBCF50
:1003A00000E2203011F02A95022F9ADE0F91089575
:1003B0000895F7DE3ADF0895D0980FEA06B900E015
:1003C00007B90895A4B0B5B01895EA2DFB2D1AE031
:1003D00024E1CDDF1AE0100F24E1E9DEEA2DFB2D48
:0803E00014E024E1E6DF0895BA
:00000001FF
