:020000020000FC
:1000000066C6189518951895189518951895189509
:100010001895189518951895189518951895189578
:100020001895000008954F934EE54A95F1F74F91CA
:100030000000000008954F9342EF4A95F1F74F9169
:10004000000008955F9359E0F6DF5A95E9F757EEFF
:100050005A95F1F75F91000008955F9358E2EBDF46
:100060005A95E9F754ED5A9591F45F91000000001C
:10007000000000000895E6DFE5DFE4DFE3DFE2DF14
:1000800008955F9355E9D7DF5A95E9F759E35A95F3
:10009000F1F75F9100000895EEDFEDDFECDFEBDFBD
:1000A000EADF0895F9DFF8DFF7DFF6DF0895FADF1A
:1000B000F3DFF2DF08956F9364E6E3DF6A95E9F713
:1000C0006F91089500001010101000000000181823
:1000D0001818000000001C1C1C1C000000001E1E44
:1000E0001E1E000000001F1F1F1F0000B998BA98B5
:1000F000BB98C198C298C398B99ABA9ABB9AC1984A
:10010000C298C39808950F9300E004BB00E005BBBC
:1001100014BB25BB0F9108951FEF20E0F4DF089575
:1001200010E020E0F0DF08950F931F932F93F8DF86
:10013000C198C29AC39A75DF74DF03B30078E9F7F8
:10014000C398C298E9DF2F911F910F910895ECDFBA
:10015000C198C2980000C39A05BBC3980895E4DF14
:10016000C19AC2980000C39A05BBC39808951F9313
:100170002F93DADF58DFD4DFC19AC29AC39A51DFD6
:1001800050DF03B3C398C298C7DF2F911F91089522
:1001900001E0DDDF089502E0DADF08950370046016
:1001A000D6DF089507700860D2DF08950C700061F3
:1001B000CEDF0895B9DF0C710062CADF08950F73B6
:1001C0000064C5DF08950068C2DF08951F932F9370
:1001D000ABDFA6DFC198C29AC39A23DF22DF03B345
:1001E0000F77C398C29898DF2F911F910895012F20
:1001F000000F000F000FE3DFEE0FFF1F18E0C895A0
:100200003196002DACDF1A95D1F700E0DCDF0895C0
:100210006DDF82DF36DF35DF00E1CDDF1EDF00E19D
:10022000CADF09DF00E1C7DF08E1C4DF00E0BADFB1
:10023000AFDF02E0B3DF04E0B5DF23DF0895E8DFDE
:1002400010E0E2E6F0E0D3DF11E0E6E6F0E0CFDF39
:1002500012E0EAE6F0E0CBDF13E0EEE6F0E0C7DF25
:1002600014E0E2E7F0E0C3DFEED192DF94DF07E0D5
:1002700099DF08952F93203011F420E00BC0213036
:1002800011F420E407C0223011F424E103C023302C
:1002900009F424E5022F010F2F9108953F930435AF
:1002A00018F034E523E00CC0003418F030E421E00D
:1002B00007C0043118F034E122E002C030E020E051
:1002C000102F131B3F9108950F9380DFE7DF0F91ED
:1002D00008950F93CFDF77DF0F910895EE0FFF1F83
:1002E000C8953196002D043211F002D0F9CF08954F
:1002F0003F932F931F9333270F93E6DF133109F4B6
:100300003FEF0F912CDF332339F011272395243051
:1003100012F036D001C0DDDF1F912F913F9108957B
:10032000AF93BF93CF933F931F93C02F121712F039
:100330004AF420C03FEFA12FAC0FAA95B22FBC0FFB
:10034000BA9503C03327A12FB22F40DF0F930A2F96
:100350003ADF0DDF102F0B2F36DF012F00DF3323A5
:1003600019F4A395B39502C0AA95BA95CA9579F7E1
:100370000F9129DF1F913F91CF91BF91AF910895C8
:100380000F931F932F9310E420E004E1C9DF14E1E1
:1003900020E404E1C5DF14E524E104E1C1DF10E05D
:1003A00023E007D010E023E094DF2F911F910F91FD
:1003B00008958FDF00E2D3DE13951431D8F308954A
:1003C0000F931F932F9310E020E083DFC8DE139577
:1003D0001832E1F710E021E07CDFC1DE139518321E
:1003E000E1F72F911F910F9108950F931F932F9372
:1003F0006BDF2395243011F4C3DF02C0112769DFBE
:100400002F911F910F9108950F931F932F935CDFEE
:1004100011275FDF2F911F910F910895AF930F93D5
:100420001F932F933F9350DF112724DFA02F33E139
:10043000A30F0A2FC8DE9BDE003219F4AA953A9565
:10044000C2F70A2FC0DE0A2F29DF033111F01395FE
:1004500040DF3F912F911F910F91AF9108952F92FF
:100460003F920F931F932F933F932EDF212E322E17
:1004700034E1311BFFDE0F93112309F01A95FADEE8
:10048000202F1F91032F4CDF13E1232D22DF00E2E9
:1004900066DE222009F02A94122D232D1ADF3F91C7
:1004A0002F911F910F913F902F9008952F923F927F
:1004B0000F931F932F933F9307DF212E322E33E1AB
:1004C000311BD8DE0F931395D5DE102F2F91032FFC
:1004D00027DF13E1232DFDDE00E241DE122D232D67
:1004E000F8DE3F912F911F910F913F902F9008952B
:1004F0002F923F924F92402E1F932F933F93E4DE13
:10050000212E322E33E1311B41F0B4DE0F931395CF
:10051000B1DE202F1F91032F03DF122D232DD9DEF3
:10052000042DE6DE3F912F911F91042D4F903F90B7
:100530002F9008951F932F93C7DE003021F42030B1
:10054000A1F02A9511C0013021F4233071F02395D8
:100550000BC0023021F4133141F0139505C0033074
:1005600021F4103011F01A95B4DE2F911F910895E7
:100570001F930F700A3010F410E301C017E3010F4E
:10058000B7DE1F9108950F930295F2DF0F91F0DF10
:1005900008950F930F2FF7DF0E2FF5DF0F910895BA
:1005A000FF93EF930F932F93EE27FF27202F2436EF
:1005B00018F02456F395FBCF2A3018F02A50E39513
:1005C000FBCFE295E20F22270F2F003019F00063D6
:1005D0008FDE2FEF0E2F02950F70222311F40030C3
:1005E00011F0006385DE0E2F0F70006381DE2F9106
:1005F0000F91EF91FF9108952020204156522D41F7
:10060000534D20436F6465202020240020204B425E
:100610002C4C4344202076302E39393920202400B8
:100620000F931F932F9311E021E053DEE8EFF5E0E5
:1006300057DE11E022E04DDEECE0F6E051DE2F91D6
:100640001F910F91089533DDA3DD13E01F93A0DD0B
:10065000E7DF2DDD00E0B4DEE3DF29DDC09A03959E
:100660000530C9F704E0ACDEDBDF21DDC0980A9578
:10067000D2F71F911A95103049F78ADDD1DF1BDDC3
:1006800087DD08950F931F934F935F9300E012E26D
:100690001DD007E02BD014FDCDD010FD09D103E013
:1006A00025D0412F00E012E611D007E01FD0512FD6
:1006B00000E012E20BD0451709F0FAD007E01FEF77
:1006C00005D05F914F911F910F9108950F710760B1
:1006D0000BBB12BB1FEF11BB0000DE980000DE9ABF
:1006E000000010E011BB1FEF12BB089510E011BB1A
:1006F0001FEF12BB0F7107600BBBDD98000010B33A
:10070000DD9A000008954E45324B20244E6F742030
:100710002400496E697469616C697A656424E3E850
:10072000F3E0DCDD0895E6E8F3E0D8DD0895E9E8DC
:10073000F3E0D4DD089510E011BB1FEF12BB1FEFF3
:100740001ABB10E017601BBBDD9ADE9ADF9A7ADCD9
:1007500079DCDF980FE1CADFB9DF8DDC8CDCDFDF0D
:1007600007E0C4DF17FFDFDFE2DF3FDE00E011E27A
:10077000ADDF68DC67DC0EE018E5A8DF0AE010E01A
:10078000A5DF0BE010E0A2DF0CE014E09FDF0DE03E
:1007900012E09CDF01E016E499DF03E016E496DF47
:1007A00002E010E693DF00E011E690DF4BDC4ADC6C
:1007B00007E016E48BDF01E010E388DF012FE3DEC2
:1007C0000AE396DD02E011E481DF012FDCDE0AE3BB
:1007D0008FDD03E016E57ADF012FD5DE0AE388DD41
:1007E00004E012E573DF012FCEDE0AE381DD05E0D0
:1007F00010E36CDF012FC7DE0AE37ADD06E011E3C8
:1008000065DF012FC0DEF1DD00E011E25FDF0EE009
:1008100018E55CDF00E012E259DF07E01FEF56DF6A
:100820000FE011E153DF0DE010E050DF0895C09AB2
:1008300009DCC0985F934F931F930F9300E056DF3E
:10084000412F00E011E242DFFDDBFCDB0AE010E0BB
:100850003DDF0BE010E03ADF10E010936000542F12
:100860005470552341F407E041DF1A70112319F445
:1008700011E0109360000DE012E028DF00E012E2CA
:1008800025DF03E016E422DF00E012E61FDF07E0C9
:1008900016E41CDF00E012E219DF07E010E116DFCA
:1008A0000DE010E013DF0F911F914F915F910895BC
:1008B0000F931F93EF93FF93AF93BF93CF93DF9368
:1008C00000E01AE103DF00E111DF10938D0100E188
:1008D0000DDF10938E0100E109DF10938F01C12F0E
:1008E00000E104DF10939001D12FACE2B1E0E1E62A
:1008F000F0E0319600E1FADEAA2319F0119709F031
:100900001193219709F0F6CF107411F407E0EEDE91
:1009100007E01FEFDBDEE1E6F0E03C9611911830D6
:10092000D9F510811630C1F5E1E6F0E03F9610816F
:10093000113091F5E1E6F0E071961081103061F52B
:10094000E1E6F0E072961081163031F5E1E6F0E074
:1009500073961081143001F5E1E6F0E07596108190
:100960001130D1F4E1E6F0E0B6961081103CA1F42C
:10097000E1E6F0E0B7961081183A71F4E1E6F0E0B4
:10098000B8961081123041F4E1E6F0E0B99610819A
:10099000113411F4C6D02CC0E1E6F0E03C96119180
:1009A000183031F51081103019F5E1E6F0E07E964F
:1009B0001081103CE9F4E1E6F0E07F961081183AEE
:1009C000B9F4E1E6F0E0B0961081123089F4E1E686
:1009D000F0E0B1961081113459F4E1E6F0E0779639
:1009E0001081113011F422D103C0113109F41FD14B
:1009F000DF91CF91BF91AF91FF91EF911F910F9137
:100A000008951F934F93EF93FF93AF93BF93CF93AB
:100A1000DF93A1E6B0E05A96C1E6D0E06E961D9154
:100A200019931D9119931D9119931C911883C1E677
:100A3000D0E06A9610EC199318EA199312E0199312
:100A400011E41883A1E6B0E01696C1E6D0E0209646
:100A50001D9119931D9119931D9119931D9119932E
:100A60001D9119931D911993C1E6D0E0269610E3CC
:100A7000199311E4199316E5199312E5199310E3EC
:100A8000199311E31883E1E6F0E03E9610811F70A0
:100A9000110F110F4DE0140F1395E1E9F1E000E0A3
:100AA000019300E0019300E0019300E00193E1E68F
:100AB000F0E03E964EE0B191A191B095A095E1E9AC
:100AC000F1E0889400810A0F019300810B1F0193CC
:100AD00010E00081011F01930081011F01934395E4
:100AE000411748F3A0919301B0919401E1E9F1E03D
:100AF000889400810A0F019300810B1F0193C1E6C6
:100B0000D0E0689610919201199310919101199378
:100B1000DF91CF91BF91AF91FF91EF914F911F91D5
:100B2000089500E012E2D2DD04E010E4CFDD08E039
:100B300010E0CCDD09E010E4C9DD07E01FEFC6DD01
:100B40000AE01CE3C3DD0BE010E0C0DD00E012E1D1
:100B5000BDDDE1E6F0E0369646E000E11191B6DD5C
:100B60004A95D9F700E110E3B1DD00E111E4AEDD13
:100B700000E116E5ABDD00E112E5A8DD00E110E3E0
:100B8000A5DD00E111E3A2DDE1E6F0E0759612E0FB
:100B90001083E1E6F0E03C964AE000E1119196DD39
:100BA0004A95D9F700E110E391DD00E111E48EDD13
:100BB00000E116E58BDD00E112E588DD00E110E3E0
:100BC00085DD00E111E382DD00E110EC7FDD00E175
:100BD00018EA7CDD00E112E079DD00E111E476DD68
:100BE000E1E6F0E0369646E000E111916FDD4A95CE
:100BF000D9F7E1E6F0E07C9644E000E1119166DD92
:100C00004A95D9F742E110E000E160DD4A95E1F74D
:100C100007E06CDD1074E1F705E01CE357DD06E04A
:100C200010E054DD00E014E251DD08950895E1E69E
:100C3000F0E0B4961191103021F41081173009F4CE
:100C40000EC0E1E6F0E0B4961191133141F4108149
:100C5000183829F4E1E6F0E0BA96008149DB0895FE
:100C600000E012E233DD04E010E430DD08E010E0E3
:100C70002DDD09E010E42ADD07E01FEF27DD1091EC
:100C80008F011450A12F0AE021DD10919001B12FA6
:100C90000BE01CDD00E012E119DD1196E1E6F0E069
:100CA0003096119100E112DD1197D9F707E01EDDB2
:100CB0001074E1F710918F01145005E007DD1091D9
:100CC000900106E003DD00E014E200DD0895F894F1
:100CD00002E01FE50EBF1DBF00E808B9B89AAFDA01
:060CE0002ADDD0DCFECF8E
:00000001FF
