:020000020000FC
:1000000010C04BC0189518953BC0189518951895B9
:1000100041C01895189547C01895189518951895CA
:100020001895F89402E01FE50EBF1DBF0FE304BB57
:1000300000E005BB8D9A8C9A8F9A60E820E840E832
:100040008FEFC8E007E155D00BB700640BBF05B7D1
:10005000026005BF00E409BF63BD00270BBD2ABDD8
:10006000002709BD48BD002704BD00270DBD0CBDFC
:1000700006E605BD01EA0FBD04E00EBD7894FFCF92
:100080009F93CA9521F4C8E095B3991F95BB9F91A2
:10009000189518951895189518959F93809590E048
:1000A00095BB9F9118950F931F930CB10F930F91D0
:1000B0000A3111F4A02F1AC00B3111F4A02F16C071
:1000C000023011F4A02F12C0B02FAA3129F400275A
:1000D0001B2F0BBD1ABD0AC0AB3129F400271B2F03
:1000E00009BD18BD03C0A23009F4B3BD1F910F9123
:1000F000189509B908E90AB908955D9BFECF0CB9B6
:02010000089560
:00000001FF
